:100000000C9434000C943E000C943E000C943E0082
:100010000C943E000C943E000C943E000C943E0068
:100020000C943E000C943E000C943E000C943E0058
:100030000C943E000C943E000C943E000C943E0048
:100040000C943E000C943E000C943E000C943E0038
:100050000C943E000C943E000C943E000C943E0028
:100060000C943E000C943E0011241FBECFEFD8E04C
:10007000DEBFCDBF0E945C000C940E020C94000009
:10008000E0E8F0E0808181688083E1E8F0E0808151
:10009000896080831092890010928800089520E082
:1000A00030E04FE753E40E94A1010E9421017093C8
:1000B0008900609388000895219A0E9440007894F6
:1000C00015E600E0F12CE12C912C812C512C412CD7
:1000D0006894772477F80F2EFFE36F2EF02DC12F51
:1000E000D02FAF2CBE2CC92CD82C6A2D7B2D8C2D5B
:1000F0009D2D0E944F008FE39CE90197F1F700C00E
:1001000000002AE037ED43E25CE36A2D7B2D8C2D65
:100110009D2D0E94B500A62EB72EC82ED92E219750
:1001200021F7C12FD02FA52CB42CC72CD62C6A2D8B
:100130007B2D8C2D9D2D0E944F008FE39CE9019714
:10014000F1F700C000002AE037ED43E25CE36A2DDE
:100150007B2D8C2D9D2D0E94B400A62EB72EC82E6F
:10016000D92E219721F7BBCF5058BB27AA270E9431
:10017000CC000C9467010E94590138F00E94600184
:1001800020F039F49F3F19F426F40C9456010EF434
:10019000E095E7FB0C945001E92F0E94780158F399
:1001A000BA17620773078407950720F079F4A6F55C
:1001B0000C949A010EF4E0950B2EBA2FA02D0B0192
:1001C000B90190010C01CA01A0011124FF27591B9C
:1001D00099F0593F50F4503E68F11A16F040A22FA2
:1001E000232F342F4427585FF3CF46953795279513
:1001F000A795F0405395C9F77EF41F16BA0B620B12
:10020000730B840BBAF09150A1F0FF0FBB1F661F58
:10021000771F881FC2F70EC0BA0F621F731F841F9B
:1002200048F4879577956795B795F7959E3F08F0C1
:10023000B0CF9395880F08F09927EE0F9795879583
:1002400008950E94800188F09F5798F0B92F992750
:10025000B751B0F0E1F0660F771F881F991F1AF0B1
:10026000BA95C9F714C0B13091F00E949A01B1E07B
:1002700008950C949A01672F782F8827B85F39F07A
:10028000B93FCCF3869577956795B395D9F73EF44A
:1002900090958095709561957F4F8F4F9F4F0895F2
:1002A00097F99F6780E870E060E008959FEF80EC29
:1002B000089500240A9416161706180609060895CC
:1002C00000240A9412161306140605060895092E32
:1002D0000394000C11F4882352F0BB0F40F4BF2BA1
:1002E00011F460FF04C06F5F7F4F8F4F9F4F0895E1
:1002F00057FD9058440F551F59F05F3F71F04795D7
:10030000880F97FB991F61F09F3F79F087950895BB
:10031000121613061406551FF2CF4695F1DF08C0DA
:10032000161617061806991FF1CF869571056105F7
:1003300008940895E894BB2766277727CB0197F99F
:1003400008950E94B4010C9467010E94590138F08D
:100350000E94600120F0952311F00C9450010C9440
:10036000560111240C949B010E94780170F3959F13
:10037000C1F3950F50E0551F629FF001729FBB279C
:10038000F00DB11D639FAA27F00DB11DAA1F649F38
:100390006627B00DA11D661F829F2227B00DA11DEB
:1003A000621F739FB00DA11D621F839FA00D611D71
:1003B000221F749F3327A00D611D231F849F600D92
:1003C000211D822F762F6A2F11249F5750409AF0BB
:1003D000F1F088234AF0EE0FFF1FBB1F661F771F47
:1003E000881F91505040A9F79E3F510580F00C9412
:1003F00050010C949B015F3FE4F3983ED4F3869543
:1004000077956795B795F795E7959F5FC1F7FE2BB1
:10041000880F911D9695879597F90895F894FFCFC9
:00000001FF
